{
	"contracts/ls/test.sol": {
		"founMe": {
			"abi": [
				{
					"inputs": [],
					"stateMutability": "nonpayable",
					"type": "constructor"
				},
				{
					"inputs": [],
					"name": "ETHTOUSD",
					"outputs": [
						{
							"internalType": "int256",
							"name": "",
							"type": "int256"
						}
					],
					"stateMutability": "view",
					"type": "function"
				},
				{
					"inputs": [],
					"name": "fund",
					"outputs": [],
					"stateMutability": "payable",
					"type": "function"
				},
				{
					"inputs": [],
					"name": "give",
					"outputs": [],
					"stateMutability": "view",
					"type": "function"
				},
				{
					"inputs": [],
					"name": "onwer",
					"outputs": [
						{
							"internalType": "address",
							"name": "",
							"type": "address"
						}
					],
					"stateMutability": "view",
					"type": "function"
				}
			],
			"devdoc": {
				"kind": "dev",
				"methods": {},
				"version": 1
			},
			"evm": {
				"assembly": "    /* \"contracts/ls/test.sol\":371:1167  contract founMe {... */\n  mstore(0x40, 0x80)\n    /* \"contracts/ls/test.sol\":482:485  100 */\n  0x64\n    /* \"contracts/ls/test.sol\":465:485  uint256 minusd = 100 */\n  0x02\n  sstore\n    /* \"contracts/ls/test.sol\":492:649  constructor() {... */\n  callvalue\n  dup1\n  iszero\n  tag_1\n  jumpi\n  0x00\n  dup1\n  revert\ntag_1:\n  pop\n    /* \"contracts/ls/test.sol\":524:534  msg.sender */\n  caller\n    /* \"contracts/ls/test.sol\":516:521  onwer */\n  0x00\n  dup1\n    /* \"contracts/ls/test.sol\":516:534  onwer = msg.sender */\n  0x0100\n  exp\n  dup2\n  sload\n  dup2\n  0xffffffffffffffffffffffffffffffffffffffff\n  mul\n  not\n  and\n  swap1\n  dup4\n  0xffffffffffffffffffffffffffffffffffffffff\n  and\n  mul\n  or\n  swap1\n  sstore\n  pop\n    /* \"contracts/ls/test.sol\":590:632  0x694AA1769357215DE4FAC081bf1f309aDC325306 */\n  0x694aa1769357215de4fac081bf1f309adc325306\n    /* \"contracts/ls/test.sol\":544:552  dataFeed */\n  0x01\n  0x00\n    /* \"contracts/ls/test.sol\":544:642  dataFeed = AggregatorV3Interface(... */\n  0x0100\n  exp\n  dup2\n  sload\n  dup2\n  0xffffffffffffffffffffffffffffffffffffffff\n  mul\n  not\n  and\n  swap1\n  dup4\n  0xffffffffffffffffffffffffffffffffffffffff\n  and\n  mul\n  or\n  swap1\n  sstore\n  pop\n    /* \"contracts/ls/test.sol\":371:1167  contract founMe {... */\n  dataSize(sub_0)\n  dup1\n  dataOffset(sub_0)\n  0x00\n  codecopy\n  0x00\n  return\nstop\n\nsub_0: assembly {\n        /* \"contracts/ls/test.sol\":371:1167  contract founMe {... */\n      mstore(0x40, 0x80)\n      jumpi(tag_1, lt(calldatasize, 0x04))\n      shr(0xe0, calldataload(0x00))\n      dup1\n      0x3433edd9\n      eq\n      tag_2\n      jumpi\n      dup1\n      0x9e96a23a\n      eq\n      tag_3\n      jumpi\n      dup1\n      0xb60d4288\n      eq\n      tag_4\n      jumpi\n      dup1\n      0xe6f803ed\n      eq\n      tag_5\n      jumpi\n    tag_1:\n      0x00\n      dup1\n      revert\n        /* \"contracts/ls/test.sol\":393:413  address public onwer */\n    tag_2:\n      callvalue\n      dup1\n      iszero\n      tag_6\n      jumpi\n      0x00\n      dup1\n      revert\n    tag_6:\n      pop\n      tag_7\n      tag_8\n      jump\t// in\n    tag_7:\n      mload(0x40)\n      tag_9\n      swap2\n      swap1\n      tag_10\n      jump\t// in\n    tag_9:\n      mload(0x40)\n      dup1\n      swap2\n      sub\n      swap1\n      return\n        /* \"contracts/ls/test.sol\":756:842  function give() public view {... */\n    tag_3:\n      callvalue\n      dup1\n      iszero\n      tag_11\n      jumpi\n      0x00\n      dup1\n      revert\n    tag_11:\n      pop\n      tag_12\n      tag_13\n      jump\t// in\n    tag_12:\n      stop\n        /* \"contracts/ls/test.sol\":655:750  function fund() public payable {... */\n    tag_4:\n      tag_14\n      tag_15\n      jump\t// in\n    tag_14:\n      stop\n        /* \"contracts/ls/test.sol\":848:1165  function ETHTOUSD() public view returns (int256) {... */\n    tag_5:\n      callvalue\n      dup1\n      iszero\n      tag_16\n      jumpi\n      0x00\n      dup1\n      revert\n    tag_16:\n      pop\n      tag_17\n      tag_18\n      jump\t// in\n    tag_17:\n      mload(0x40)\n      tag_19\n      swap2\n      swap1\n      tag_20\n      jump\t// in\n    tag_19:\n      mload(0x40)\n      dup1\n      swap2\n      sub\n      swap1\n      return\n        /* \"contracts/ls/test.sol\":393:413  address public onwer */\n    tag_8:\n      0x00\n      dup1\n      sload\n      swap1\n      0x0100\n      exp\n      swap1\n      div\n      0xffffffffffffffffffffffffffffffffffffffff\n      and\n      dup2\n      jump\t// out\n        /* \"contracts/ls/test.sol\":756:842  function give() public view {... */\n    tag_13:\n        /* \"contracts/ls/test.sol\":811:821  msg.sender */\n      caller\n        /* \"contracts/ls/test.sol\":802:821  onwer == msg.sender */\n      0xffffffffffffffffffffffffffffffffffffffff\n      and\n        /* \"contracts/ls/test.sol\":802:807  onwer */\n      0x00\n      dup1\n      sload\n      swap1\n      0x0100\n      exp\n      swap1\n      div\n      0xffffffffffffffffffffffffffffffffffffffff\n      and\n        /* \"contracts/ls/test.sol\":802:821  onwer == msg.sender */\n      0xffffffffffffffffffffffffffffffffffffffff\n      and\n      eq\n        /* \"contracts/ls/test.sol\":794:835  require(onwer == msg.sender, \"not onwer\") */\n      tag_22\n      jumpi\n      mload(0x40)\n      0x08c379a000000000000000000000000000000000000000000000000000000000\n      dup2\n      mstore\n      0x04\n      add\n      tag_23\n      swap1\n      tag_24\n      jump\t// in\n    tag_23:\n      mload(0x40)\n      dup1\n      swap2\n      sub\n      swap1\n      revert\n    tag_22:\n        /* \"contracts/ls/test.sol\":756:842  function give() public view {... */\n      jump\t// out\n        /* \"contracts/ls/test.sol\":655:750  function fund() public payable {... */\n    tag_15:\n        /* \"contracts/ls/test.sol\":716:723  100 wei */\n      0x64\n        /* \"contracts/ls/test.sol\":704:713  msg.value */\n      callvalue\n        /* \"contracts/ls/test.sol\":704:723  msg.value > 100 wei */\n      gt\n        /* \"contracts/ls/test.sol\":696:743  require(msg.value > 100 wei, \"must then 1 eth\") */\n      tag_26\n      jumpi\n      mload(0x40)\n      0x08c379a000000000000000000000000000000000000000000000000000000000\n      dup2\n      mstore\n      0x04\n      add\n      tag_27\n      swap1\n      tag_28\n      jump\t// in\n    tag_27:\n      mload(0x40)\n      dup1\n      swap2\n      sub\n      swap1\n      revert\n    tag_26:\n        /* \"contracts/ls/test.sol\":655:750  function fund() public payable {... */\n      jump\t// out\n        /* \"contracts/ls/test.sol\":848:1165  function ETHTOUSD() public view returns (int256) {... */\n    tag_18:\n        /* \"contracts/ls/test.sol\":889:895  int256 */\n      0x00\n        /* \"contracts/ls/test.sol\":982:992  int answer */\n      dup1\n        /* \"contracts/ls/test.sol\":1109:1117  dataFeed */\n      0x01\n      0x00\n      swap1\n      sload\n      swap1\n      0x0100\n      exp\n      swap1\n      div\n      0xffffffffffffffffffffffffffffffffffffffff\n      and\n        /* \"contracts/ls/test.sol\":1109:1133  dataFeed.latestRoundData */\n      0xffffffffffffffffffffffffffffffffffffffff\n      and\n      0xfeaf968c\n        /* \"contracts/ls/test.sol\":1109:1135  dataFeed.latestRoundData() */\n      mload(0x40)\n      dup2\n      0xffffffff\n      and\n      0xe0\n      shl\n      dup2\n      mstore\n      0x04\n      add\n      0xa0\n      mload(0x40)\n      dup1\n      dup4\n      sub\n      dup2\n      dup7\n      gas\n      staticcall\n      iszero\n      dup1\n      iszero\n      tag_31\n      jumpi\n      returndatasize\n      0x00\n      dup1\n      returndatacopy\n      revert(0x00, returndatasize)\n    tag_31:\n      pop\n      pop\n      pop\n      pop\n      mload(0x40)\n      returndatasize\n      not(0x1f)\n      0x1f\n      dup3\n      add\n      and\n      dup3\n      add\n      dup1\n      0x40\n      mstore\n      pop\n      dup2\n      add\n      swap1\n      tag_32\n      swap2\n      swap1\n      tag_33\n      jump\t// in\n    tag_32:\n        /* \"contracts/ls/test.sol\":934:1135  (... */\n      pop\n      pop\n      pop\n      swap2\n      pop\n      pop\n        /* \"contracts/ls/test.sol\":1152:1158  answer */\n      dup1\n        /* \"contracts/ls/test.sol\":1145:1158  return answer */\n      swap2\n      pop\n      pop\n        /* \"contracts/ls/test.sol\":848:1165  function ETHTOUSD() public view returns (int256) {... */\n      swap1\n      jump\t// out\n        /* \"#utility.yul\":7:133   */\n    tag_34:\n        /* \"#utility.yul\":44:51   */\n      0x00\n        /* \"#utility.yul\":84:126   */\n      0xffffffffffffffffffffffffffffffffffffffff\n        /* \"#utility.yul\":77:82   */\n      dup3\n        /* \"#utility.yul\":73:127   */\n      and\n        /* \"#utility.yul\":62:127   */\n      swap1\n      pop\n        /* \"#utility.yul\":7:133   */\n      swap2\n      swap1\n      pop\n      jump\t// out\n        /* \"#utility.yul\":139:235   */\n    tag_35:\n        /* \"#utility.yul\":176:183   */\n      0x00\n        /* \"#utility.yul\":205:229   */\n      tag_58\n        /* \"#utility.yul\":223:228   */\n      dup3\n        /* \"#utility.yul\":205:229   */\n      tag_34\n      jump\t// in\n    tag_58:\n        /* \"#utility.yul\":194:229   */\n      swap1\n      pop\n        /* \"#utility.yul\":139:235   */\n      swap2\n      swap1\n      pop\n      jump\t// out\n        /* \"#utility.yul\":241:359   */\n    tag_36:\n        /* \"#utility.yul\":328:352   */\n      tag_60\n        /* \"#utility.yul\":346:351   */\n      dup2\n        /* \"#utility.yul\":328:352   */\n      tag_35\n      jump\t// in\n    tag_60:\n        /* \"#utility.yul\":323:326   */\n      dup3\n        /* \"#utility.yul\":316:353   */\n      mstore\n        /* \"#utility.yul\":241:359   */\n      pop\n      pop\n      jump\t// out\n        /* \"#utility.yul\":365:587   */\n    tag_10:\n        /* \"#utility.yul\":458:462   */\n      0x00\n        /* \"#utility.yul\":496:498   */\n      0x20\n        /* \"#utility.yul\":485:494   */\n      dup3\n        /* \"#utility.yul\":481:499   */\n      add\n        /* \"#utility.yul\":473:499   */\n      swap1\n      pop\n        /* \"#utility.yul\":509:580   */\n      tag_62\n        /* \"#utility.yul\":577:578   */\n      0x00\n        /* \"#utility.yul\":566:575   */\n      dup4\n        /* \"#utility.yul\":562:579   */\n      add\n        /* \"#utility.yul\":553:559   */\n      dup5\n        /* \"#utility.yul\":509:580   */\n      tag_36\n      jump\t// in\n    tag_62:\n        /* \"#utility.yul\":365:587   */\n      swap3\n      swap2\n      pop\n      pop\n      jump\t// out\n        /* \"#utility.yul\":593:669   */\n    tag_37:\n        /* \"#utility.yul\":629:636   */\n      0x00\n        /* \"#utility.yul\":658:663   */\n      dup2\n        /* \"#utility.yul\":647:663   */\n      swap1\n      pop\n        /* \"#utility.yul\":593:669   */\n      swap2\n      swap1\n      pop\n      jump\t// out\n        /* \"#utility.yul\":675:790   */\n    tag_38:\n        /* \"#utility.yul\":760:783   */\n      tag_65\n        /* \"#utility.yul\":777:782   */\n      dup2\n        /* \"#utility.yul\":760:783   */\n      tag_37\n      jump\t// in\n    tag_65:\n        /* \"#utility.yul\":755:758   */\n      dup3\n        /* \"#utility.yul\":748:784   */\n      mstore\n        /* \"#utility.yul\":675:790   */\n      pop\n      pop\n      jump\t// out\n        /* \"#utility.yul\":796:1014   */\n    tag_20:\n        /* \"#utility.yul\":887:891   */\n      0x00\n        /* \"#utility.yul\":925:927   */\n      0x20\n        /* \"#utility.yul\":914:923   */\n      dup3\n        /* \"#utility.yul\":910:928   */\n      add\n        /* \"#utility.yul\":902:928   */\n      swap1\n      pop\n        /* \"#utility.yul\":938:1007   */\n      tag_67\n        /* \"#utility.yul\":1004:1005   */\n      0x00\n        /* \"#utility.yul\":993:1002   */\n      dup4\n        /* \"#utility.yul\":989:1006   */\n      add\n        /* \"#utility.yul\":980:986   */\n      dup5\n        /* \"#utility.yul\":938:1007   */\n      tag_38\n      jump\t// in\n    tag_67:\n        /* \"#utility.yul\":796:1014   */\n      swap3\n      swap2\n      pop\n      pop\n      jump\t// out\n        /* \"#utility.yul\":1020:1189   */\n    tag_39:\n        /* \"#utility.yul\":1104:1115   */\n      0x00\n        /* \"#utility.yul\":1138:1144   */\n      dup3\n        /* \"#utility.yul\":1133:1136   */\n      dup3\n        /* \"#utility.yul\":1126:1145   */\n      mstore\n        /* \"#utility.yul\":1178:1182   */\n      0x20\n        /* \"#utility.yul\":1173:1176   */\n      dup3\n        /* \"#utility.yul\":1169:1183   */\n      add\n        /* \"#utility.yul\":1154:1183   */\n      swap1\n      pop\n        /* \"#utility.yul\":1020:1189   */\n      swap3\n      swap2\n      pop\n      pop\n      jump\t// out\n        /* \"#utility.yul\":1195:1354   */\n    tag_40:\n        /* \"#utility.yul\":1335:1346   */\n      0x6e6f74206f6e7765720000000000000000000000000000000000000000000000\n        /* \"#utility.yul\":1331:1332   */\n      0x00\n        /* \"#utility.yul\":1323:1329   */\n      dup3\n        /* \"#utility.yul\":1319:1333   */\n      add\n        /* \"#utility.yul\":1312:1347   */\n      mstore\n        /* \"#utility.yul\":1195:1354   */\n      pop\n      jump\t// out\n        /* \"#utility.yul\":1360:1725   */\n    tag_41:\n        /* \"#utility.yul\":1502:1505   */\n      0x00\n        /* \"#utility.yul\":1523:1589   */\n      tag_71\n        /* \"#utility.yul\":1587:1588   */\n      0x09\n        /* \"#utility.yul\":1582:1585   */\n      dup4\n        /* \"#utility.yul\":1523:1589   */\n      tag_39\n      jump\t// in\n    tag_71:\n        /* \"#utility.yul\":1516:1589   */\n      swap2\n      pop\n        /* \"#utility.yul\":1598:1691   */\n      tag_72\n        /* \"#utility.yul\":1687:1690   */\n      dup3\n        /* \"#utility.yul\":1598:1691   */\n      tag_40\n      jump\t// in\n    tag_72:\n        /* \"#utility.yul\":1716:1718   */\n      0x20\n        /* \"#utility.yul\":1711:1714   */\n      dup3\n        /* \"#utility.yul\":1707:1719   */\n      add\n        /* \"#utility.yul\":1700:1719   */\n      swap1\n      pop\n        /* \"#utility.yul\":1360:1725   */\n      swap2\n      swap1\n      pop\n      jump\t// out\n        /* \"#utility.yul\":1731:2150   */\n    tag_24:\n        /* \"#utility.yul\":1897:1901   */\n      0x00\n        /* \"#utility.yul\":1935:1937   */\n      0x20\n        /* \"#utility.yul\":1924:1933   */\n      dup3\n        /* \"#utility.yul\":1920:1938   */\n      add\n        /* \"#utility.yul\":1912:1938   */\n      swap1\n      pop\n        /* \"#utility.yul\":1984:1993   */\n      dup2\n        /* \"#utility.yul\":1978:1982   */\n      dup2\n        /* \"#utility.yul\":1974:1994   */\n      sub\n        /* \"#utility.yul\":1970:1971   */\n      0x00\n        /* \"#utility.yul\":1959:1968   */\n      dup4\n        /* \"#utility.yul\":1955:1972   */\n      add\n        /* \"#utility.yul\":1948:1995   */\n      mstore\n        /* \"#utility.yul\":2012:2143   */\n      tag_74\n        /* \"#utility.yul\":2138:2142   */\n      dup2\n        /* \"#utility.yul\":2012:2143   */\n      tag_41\n      jump\t// in\n    tag_74:\n        /* \"#utility.yul\":2004:2143   */\n      swap1\n      pop\n        /* \"#utility.yul\":1731:2150   */\n      swap2\n      swap1\n      pop\n      jump\t// out\n        /* \"#utility.yul\":2156:2321   */\n    tag_42:\n        /* \"#utility.yul\":2296:2313   */\n      0x6d757374207468656e2031206574680000000000000000000000000000000000\n        /* \"#utility.yul\":2292:2293   */\n      0x00\n        /* \"#utility.yul\":2284:2290   */\n      dup3\n        /* \"#utility.yul\":2280:2294   */\n      add\n        /* \"#utility.yul\":2273:2314   */\n      mstore\n        /* \"#utility.yul\":2156:2321   */\n      pop\n      jump\t// out\n        /* \"#utility.yul\":2327:2693   */\n    tag_43:\n        /* \"#utility.yul\":2469:2472   */\n      0x00\n        /* \"#utility.yul\":2490:2557   */\n      tag_77\n        /* \"#utility.yul\":2554:2556   */\n      0x0f\n        /* \"#utility.yul\":2549:2552   */\n      dup4\n        /* \"#utility.yul\":2490:2557   */\n      tag_39\n      jump\t// in\n    tag_77:\n        /* \"#utility.yul\":2483:2557   */\n      swap2\n      pop\n        /* \"#utility.yul\":2566:2659   */\n      tag_78\n        /* \"#utility.yul\":2655:2658   */\n      dup3\n        /* \"#utility.yul\":2566:2659   */\n      tag_42\n      jump\t// in\n    tag_78:\n        /* \"#utility.yul\":2684:2686   */\n      0x20\n        /* \"#utility.yul\":2679:2682   */\n      dup3\n        /* \"#utility.yul\":2675:2687   */\n      add\n        /* \"#utility.yul\":2668:2687   */\n      swap1\n      pop\n        /* \"#utility.yul\":2327:2693   */\n      swap2\n      swap1\n      pop\n      jump\t// out\n        /* \"#utility.yul\":2699:3118   */\n    tag_28:\n        /* \"#utility.yul\":2865:2869   */\n      0x00\n        /* \"#utility.yul\":2903:2905   */\n      0x20\n        /* \"#utility.yul\":2892:2901   */\n      dup3\n        /* \"#utility.yul\":2888:2906   */\n      add\n        /* \"#utility.yul\":2880:2906   */\n      swap1\n      pop\n        /* \"#utility.yul\":2952:2961   */\n      dup2\n        /* \"#utility.yul\":2946:2950   */\n      dup2\n        /* \"#utility.yul\":2942:2962   */\n      sub\n        /* \"#utility.yul\":2938:2939   */\n      0x00\n        /* \"#utility.yul\":2927:2936   */\n      dup4\n        /* \"#utility.yul\":2923:2940   */\n      add\n        /* \"#utility.yul\":2916:2963   */\n      mstore\n        /* \"#utility.yul\":2980:3111   */\n      tag_80\n        /* \"#utility.yul\":3106:3110   */\n      dup2\n        /* \"#utility.yul\":2980:3111   */\n      tag_43\n      jump\t// in\n    tag_80:\n        /* \"#utility.yul\":2972:3111   */\n      swap1\n      pop\n        /* \"#utility.yul\":2699:3118   */\n      swap2\n      swap1\n      pop\n      jump\t// out\n        /* \"#utility.yul\":3205:3322   */\n    tag_45:\n        /* \"#utility.yul\":3314:3315   */\n      0x00\n        /* \"#utility.yul\":3311:3312   */\n      dup1\n        /* \"#utility.yul\":3304:3316   */\n      revert\n        /* \"#utility.yul\":3451:3556   */\n    tag_47:\n        /* \"#utility.yul\":3487:3494   */\n      0x00\n        /* \"#utility.yul\":3527:3549   */\n      0xffffffffffffffffffff\n        /* \"#utility.yul\":3520:3525   */\n      dup3\n        /* \"#utility.yul\":3516:3550   */\n      and\n        /* \"#utility.yul\":3505:3550   */\n      swap1\n      pop\n        /* \"#utility.yul\":3451:3556   */\n      swap2\n      swap1\n      pop\n      jump\t// out\n        /* \"#utility.yul\":3562:3682   */\n    tag_48:\n        /* \"#utility.yul\":3634:3657   */\n      tag_86\n        /* \"#utility.yul\":3651:3656   */\n      dup2\n        /* \"#utility.yul\":3634:3657   */\n      tag_47\n      jump\t// in\n    tag_86:\n        /* \"#utility.yul\":3627:3632   */\n      dup2\n        /* \"#utility.yul\":3624:3658   */\n      eq\n        /* \"#utility.yul\":3614:3676   */\n      tag_87\n      jumpi\n        /* \"#utility.yul\":3672:3673   */\n      0x00\n        /* \"#utility.yul\":3669:3670   */\n      dup1\n        /* \"#utility.yul\":3662:3674   */\n      revert\n        /* \"#utility.yul\":3614:3676   */\n    tag_87:\n        /* \"#utility.yul\":3562:3682   */\n      pop\n      jump\t// out\n        /* \"#utility.yul\":3688:3829   */\n    tag_49:\n        /* \"#utility.yul\":3744:3749   */\n      0x00\n        /* \"#utility.yul\":3775:3781   */\n      dup2\n        /* \"#utility.yul\":3769:3782   */\n      mload\n        /* \"#utility.yul\":3760:3782   */\n      swap1\n      pop\n        /* \"#utility.yul\":3791:3823   */\n      tag_89\n        /* \"#utility.yul\":3817:3822   */\n      dup2\n        /* \"#utility.yul\":3791:3823   */\n      tag_48\n      jump\t// in\n    tag_89:\n        /* \"#utility.yul\":3688:3829   */\n      swap3\n      swap2\n      pop\n      pop\n      jump\t// out\n        /* \"#utility.yul\":3835:3955   */\n    tag_50:\n        /* \"#utility.yul\":3907:3930   */\n      tag_91\n        /* \"#utility.yul\":3924:3929   */\n      dup2\n        /* \"#utility.yul\":3907:3930   */\n      tag_37\n      jump\t// in\n    tag_91:\n        /* \"#utility.yul\":3900:3905   */\n      dup2\n        /* \"#utility.yul\":3897:3931   */\n      eq\n        /* \"#utility.yul\":3887:3949   */\n      tag_92\n      jumpi\n        /* \"#utility.yul\":3945:3946   */\n      0x00\n        /* \"#utility.yul\":3942:3943   */\n      dup1\n        /* \"#utility.yul\":3935:3947   */\n      revert\n        /* \"#utility.yul\":3887:3949   */\n    tag_92:\n        /* \"#utility.yul\":3835:3955   */\n      pop\n      jump\t// out\n        /* \"#utility.yul\":3961:4102   */\n    tag_51:\n        /* \"#utility.yul\":4017:4022   */\n      0x00\n        /* \"#utility.yul\":4048:4054   */\n      dup2\n        /* \"#utility.yul\":4042:4055   */\n      mload\n        /* \"#utility.yul\":4033:4055   */\n      swap1\n      pop\n        /* \"#utility.yul\":4064:4096   */\n      tag_94\n        /* \"#utility.yul\":4090:4095   */\n      dup2\n        /* \"#utility.yul\":4064:4096   */\n      tag_50\n      jump\t// in\n    tag_94:\n        /* \"#utility.yul\":3961:4102   */\n      swap3\n      swap2\n      pop\n      pop\n      jump\t// out\n        /* \"#utility.yul\":4108:4185   */\n    tag_52:\n        /* \"#utility.yul\":4145:4152   */\n      0x00\n        /* \"#utility.yul\":4174:4179   */\n      dup2\n        /* \"#utility.yul\":4163:4179   */\n      swap1\n      pop\n        /* \"#utility.yul\":4108:4185   */\n      swap2\n      swap1\n      pop\n      jump\t// out\n        /* \"#utility.yul\":4191:4313   */\n    tag_53:\n        /* \"#utility.yul\":4264:4288   */\n      tag_97\n        /* \"#utility.yul\":4282:4287   */\n      dup2\n        /* \"#utility.yul\":4264:4288   */\n      tag_52\n      jump\t// in\n    tag_97:\n        /* \"#utility.yul\":4257:4262   */\n      dup2\n        /* \"#utility.yul\":4254:4289   */\n      eq\n        /* \"#utility.yul\":4244:4307   */\n      tag_98\n      jumpi\n        /* \"#utility.yul\":4303:4304   */\n      0x00\n        /* \"#utility.yul\":4300:4301   */\n      dup1\n        /* \"#utility.yul\":4293:4305   */\n      revert\n        /* \"#utility.yul\":4244:4307   */\n    tag_98:\n        /* \"#utility.yul\":4191:4313   */\n      pop\n      jump\t// out\n        /* \"#utility.yul\":4319:4462   */\n    tag_54:\n        /* \"#utility.yul\":4376:4381   */\n      0x00\n        /* \"#utility.yul\":4407:4413   */\n      dup2\n        /* \"#utility.yul\":4401:4414   */\n      mload\n        /* \"#utility.yul\":4392:4414   */\n      swap1\n      pop\n        /* \"#utility.yul\":4423:4456   */\n      tag_100\n        /* \"#utility.yul\":4450:4455   */\n      dup2\n        /* \"#utility.yul\":4423:4456   */\n      tag_53\n      jump\t// in\n    tag_100:\n        /* \"#utility.yul\":4319:4462   */\n      swap3\n      swap2\n      pop\n      pop\n      jump\t// out\n        /* \"#utility.yul\":4468:5439   */\n    tag_33:\n        /* \"#utility.yul\":4571:4577   */\n      0x00\n        /* \"#utility.yul\":4579:4585   */\n      dup1\n        /* \"#utility.yul\":4587:4593   */\n      0x00\n        /* \"#utility.yul\":4595:4601   */\n      dup1\n        /* \"#utility.yul\":4603:4609   */\n      0x00\n        /* \"#utility.yul\":4652:4655   */\n      0xa0\n        /* \"#utility.yul\":4640:4649   */\n      dup7\n        /* \"#utility.yul\":4631:4638   */\n      dup9\n        /* \"#utility.yul\":4627:4650   */\n      sub\n        /* \"#utility.yul\":4623:4656   */\n      slt\n        /* \"#utility.yul\":4620:4740   */\n      iszero\n      tag_102\n      jumpi\n        /* \"#utility.yul\":4659:4738   */\n      tag_103\n      tag_45\n      jump\t// in\n    tag_103:\n        /* \"#utility.yul\":4620:4740   */\n    tag_102:\n        /* \"#utility.yul\":4779:4780   */\n      0x00\n        /* \"#utility.yul\":4804:4867   */\n      tag_104\n        /* \"#utility.yul\":4859:4866   */\n      dup9\n        /* \"#utility.yul\":4850:4856   */\n      dup3\n        /* \"#utility.yul\":4839:4848   */\n      dup10\n        /* \"#utility.yul\":4835:4857   */\n      add\n        /* \"#utility.yul\":4804:4867   */\n      tag_49\n      jump\t// in\n    tag_104:\n        /* \"#utility.yul\":4794:4867   */\n      swap6\n      pop\n        /* \"#utility.yul\":4750:4877   */\n      pop\n        /* \"#utility.yul\":4916:4918   */\n      0x20\n        /* \"#utility.yul\":4942:5005   */\n      tag_105\n        /* \"#utility.yul\":4997:5004   */\n      dup9\n        /* \"#utility.yul\":4988:4994   */\n      dup3\n        /* \"#utility.yul\":4977:4986   */\n      dup10\n        /* \"#utility.yul\":4973:4995   */\n      add\n        /* \"#utility.yul\":4942:5005   */\n      tag_51\n      jump\t// in\n    tag_105:\n        /* \"#utility.yul\":4932:5005   */\n      swap5\n      pop\n        /* \"#utility.yul\":4887:5015   */\n      pop\n        /* \"#utility.yul\":5054:5056   */\n      0x40\n        /* \"#utility.yul\":5080:5144   */\n      tag_106\n        /* \"#utility.yul\":5136:5143   */\n      dup9\n        /* \"#utility.yul\":5127:5133   */\n      dup3\n        /* \"#utility.yul\":5116:5125   */\n      dup10\n        /* \"#utility.yul\":5112:5134   */\n      add\n        /* \"#utility.yul\":5080:5144   */\n      tag_54\n      jump\t// in\n    tag_106:\n        /* \"#utility.yul\":5070:5144   */\n      swap4\n      pop\n        /* \"#utility.yul\":5025:5154   */\n      pop\n        /* \"#utility.yul\":5193:5195   */\n      0x60\n        /* \"#utility.yul\":5219:5283   */\n      tag_107\n        /* \"#utility.yul\":5275:5282   */\n      dup9\n        /* \"#utility.yul\":5266:5272   */\n      dup3\n        /* \"#utility.yul\":5255:5264   */\n      dup10\n        /* \"#utility.yul\":5251:5273   */\n      add\n        /* \"#utility.yul\":5219:5283   */\n      tag_54\n      jump\t// in\n    tag_107:\n        /* \"#utility.yul\":5209:5283   */\n      swap3\n      pop\n        /* \"#utility.yul\":5164:5293   */\n      pop\n        /* \"#utility.yul\":5332:5335   */\n      0x80\n        /* \"#utility.yul\":5359:5422   */\n      tag_108\n        /* \"#utility.yul\":5414:5421   */\n      dup9\n        /* \"#utility.yul\":5405:5411   */\n      dup3\n        /* \"#utility.yul\":5394:5403   */\n      dup10\n        /* \"#utility.yul\":5390:5412   */\n      add\n        /* \"#utility.yul\":5359:5422   */\n      tag_49\n      jump\t// in\n    tag_108:\n        /* \"#utility.yul\":5349:5422   */\n      swap2\n      pop\n        /* \"#utility.yul\":5303:5432   */\n      pop\n        /* \"#utility.yul\":4468:5439   */\n      swap3\n      swap6\n      pop\n      swap3\n      swap6\n      swap1\n      swap4\n      pop\n      jump\t// out\n\n    auxdata: 0xa2646970667358221220fac2a66e9b42a4803173b774134bc4e4cefa3a0ff8f339bea7f94487163b3e3164736f6c63430008190033\n}\n",
				"bytecode": {
					"linkReferences": {},
					"object": "608060405260646002553480156013575f80fd5b50335f806101000a81548173ffffffffffffffffffffffffffffffffffffffff021916908373ffffffffffffffffffffffffffffffffffffffff16021790555073694aa1769357215de4fac081bf1f309adc32530660015f6101000a81548173ffffffffffffffffffffffffffffffffffffffff021916908373ffffffffffffffffffffffffffffffffffffffff160217905550610500806100b45f395ff3fe60806040526004361061003e575f3560e01c80633433edd9146100425780639e96a23a1461006c578063b60d428814610082578063e6f803ed1461008c575b5f80fd5b34801561004d575f80fd5b506100566100b6565b6040516100639190610289565b60405180910390f35b348015610077575f80fd5b506100806100d9565b005b61008a610168565b005b348015610097575f80fd5b506100a06101ad565b6040516100ad91906102ba565b60405180910390f35b5f8054906101000a900473ffffffffffffffffffffffffffffffffffffffff1681565b3373ffffffffffffffffffffffffffffffffffffffff165f8054906101000a900473ffffffffffffffffffffffffffffffffffffffff1673ffffffffffffffffffffffffffffffffffffffff1614610166576040517f08c379a000000000000000000000000000000000000000000000000000000000815260040161015d9061032d565b60405180910390fd5b565b606434116101ab576040517f08c379a00000000000000000000000000000000000000000000000000000000081526004016101a290610395565b60405180910390fd5b565b5f8060015f9054906101000a900473ffffffffffffffffffffffffffffffffffffffff1673ffffffffffffffffffffffffffffffffffffffff1663feaf968c6040518163ffffffff1660e01b815260040160a060405180830381865afa158015610219573d5f803e3d5ffd5b505050506040513d601f19601f8201168201806040525081019061023d9190610453565b5050509150508091505090565b5f73ffffffffffffffffffffffffffffffffffffffff82169050919050565b5f6102738261024a565b9050919050565b61028381610269565b82525050565b5f60208201905061029c5f83018461027a565b92915050565b5f819050919050565b6102b4816102a2565b82525050565b5f6020820190506102cd5f8301846102ab565b92915050565b5f82825260208201905092915050565b7f6e6f74206f6e77657200000000000000000000000000000000000000000000005f82015250565b5f6103176009836102d3565b9150610322826102e3565b602082019050919050565b5f6020820190508181035f8301526103448161030b565b9050919050565b7f6d757374207468656e20312065746800000000000000000000000000000000005f82015250565b5f61037f600f836102d3565b915061038a8261034b565b602082019050919050565b5f6020820190508181035f8301526103ac81610373565b9050919050565b5f80fd5b5f69ffffffffffffffffffff82169050919050565b6103d5816103b7565b81146103df575f80fd5b50565b5f815190506103f0816103cc565b92915050565b6103ff816102a2565b8114610409575f80fd5b50565b5f8151905061041a816103f6565b92915050565b5f819050919050565b61043281610420565b811461043c575f80fd5b50565b5f8151905061044d81610429565b92915050565b5f805f805f60a0868803121561046c5761046b6103b3565b5b5f610479888289016103e2565b955050602061048a8882890161040c565b945050604061049b8882890161043f565b93505060606104ac8882890161043f565b92505060806104bd888289016103e2565b915050929550929590935056fea2646970667358221220fac2a66e9b42a4803173b774134bc4e4cefa3a0ff8f339bea7f94487163b3e3164736f6c63430008190033",
					"opcodes": "PUSH1 0x80 PUSH1 0x40 MSTORE PUSH1 0x64 PUSH1 0x2 SSTORE CALLVALUE DUP1 ISZERO PUSH1 0x13 JUMPI PUSH0 DUP1 REVERT JUMPDEST POP CALLER PUSH0 DUP1 PUSH2 0x100 EXP DUP2 SLOAD DUP2 PUSH20 0xFFFFFFFFFFFFFFFFFFFFFFFFFFFFFFFFFFFFFFFF MUL NOT AND SWAP1 DUP4 PUSH20 0xFFFFFFFFFFFFFFFFFFFFFFFFFFFFFFFFFFFFFFFF AND MUL OR SWAP1 SSTORE POP PUSH20 0x694AA1769357215DE4FAC081BF1F309ADC325306 PUSH1 0x1 PUSH0 PUSH2 0x100 EXP DUP2 SLOAD DUP2 PUSH20 0xFFFFFFFFFFFFFFFFFFFFFFFFFFFFFFFFFFFFFFFF MUL NOT AND SWAP1 DUP4 PUSH20 0xFFFFFFFFFFFFFFFFFFFFFFFFFFFFFFFFFFFFFFFF AND MUL OR SWAP1 SSTORE POP PUSH2 0x500 DUP1 PUSH2 0xB4 PUSH0 CODECOPY PUSH0 RETURN INVALID PUSH1 0x80 PUSH1 0x40 MSTORE PUSH1 0x4 CALLDATASIZE LT PUSH2 0x3E JUMPI PUSH0 CALLDATALOAD PUSH1 0xE0 SHR DUP1 PUSH4 0x3433EDD9 EQ PUSH2 0x42 JUMPI DUP1 PUSH4 0x9E96A23A EQ PUSH2 0x6C JUMPI DUP1 PUSH4 0xB60D4288 EQ PUSH2 0x82 JUMPI DUP1 PUSH4 0xE6F803ED EQ PUSH2 0x8C JUMPI JUMPDEST PUSH0 DUP1 REVERT JUMPDEST CALLVALUE DUP1 ISZERO PUSH2 0x4D JUMPI PUSH0 DUP1 REVERT JUMPDEST POP PUSH2 0x56 PUSH2 0xB6 JUMP JUMPDEST PUSH1 0x40 MLOAD PUSH2 0x63 SWAP2 SWAP1 PUSH2 0x289 JUMP JUMPDEST PUSH1 0x40 MLOAD DUP1 SWAP2 SUB SWAP1 RETURN JUMPDEST CALLVALUE DUP1 ISZERO PUSH2 0x77 JUMPI PUSH0 DUP1 REVERT JUMPDEST POP PUSH2 0x80 PUSH2 0xD9 JUMP JUMPDEST STOP JUMPDEST PUSH2 0x8A PUSH2 0x168 JUMP JUMPDEST STOP JUMPDEST CALLVALUE DUP1 ISZERO PUSH2 0x97 JUMPI PUSH0 DUP1 REVERT JUMPDEST POP PUSH2 0xA0 PUSH2 0x1AD JUMP JUMPDEST PUSH1 0x40 MLOAD PUSH2 0xAD SWAP2 SWAP1 PUSH2 0x2BA JUMP JUMPDEST PUSH1 0x40 MLOAD DUP1 SWAP2 SUB SWAP1 RETURN JUMPDEST PUSH0 DUP1 SLOAD SWAP1 PUSH2 0x100 EXP SWAP1 DIV PUSH20 0xFFFFFFFFFFFFFFFFFFFFFFFFFFFFFFFFFFFFFFFF AND DUP2 JUMP JUMPDEST CALLER PUSH20 0xFFFFFFFFFFFFFFFFFFFFFFFFFFFFFFFFFFFFFFFF AND PUSH0 DUP1 SLOAD SWAP1 PUSH2 0x100 EXP SWAP1 DIV PUSH20 0xFFFFFFFFFFFFFFFFFFFFFFFFFFFFFFFFFFFFFFFF AND PUSH20 0xFFFFFFFFFFFFFFFFFFFFFFFFFFFFFFFFFFFFFFFF AND EQ PUSH2 0x166 JUMPI PUSH1 0x40 MLOAD PUSH32 0x8C379A000000000000000000000000000000000000000000000000000000000 DUP2 MSTORE PUSH1 0x4 ADD PUSH2 0x15D SWAP1 PUSH2 0x32D JUMP JUMPDEST PUSH1 0x40 MLOAD DUP1 SWAP2 SUB SWAP1 REVERT JUMPDEST JUMP JUMPDEST PUSH1 0x64 CALLVALUE GT PUSH2 0x1AB JUMPI PUSH1 0x40 MLOAD PUSH32 0x8C379A000000000000000000000000000000000000000000000000000000000 DUP2 MSTORE PUSH1 0x4 ADD PUSH2 0x1A2 SWAP1 PUSH2 0x395 JUMP JUMPDEST PUSH1 0x40 MLOAD DUP1 SWAP2 SUB SWAP1 REVERT JUMPDEST JUMP JUMPDEST PUSH0 DUP1 PUSH1 0x1 PUSH0 SWAP1 SLOAD SWAP1 PUSH2 0x100 EXP SWAP1 DIV PUSH20 0xFFFFFFFFFFFFFFFFFFFFFFFFFFFFFFFFFFFFFFFF AND PUSH20 0xFFFFFFFFFFFFFFFFFFFFFFFFFFFFFFFFFFFFFFFF AND PUSH4 0xFEAF968C PUSH1 0x40 MLOAD DUP2 PUSH4 0xFFFFFFFF AND PUSH1 0xE0 SHL DUP2 MSTORE PUSH1 0x4 ADD PUSH1 0xA0 PUSH1 0x40 MLOAD DUP1 DUP4 SUB DUP2 DUP7 GAS STATICCALL ISZERO DUP1 ISZERO PUSH2 0x219 JUMPI RETURNDATASIZE PUSH0 DUP1 RETURNDATACOPY RETURNDATASIZE PUSH0 REVERT JUMPDEST POP POP POP POP PUSH1 0x40 MLOAD RETURNDATASIZE PUSH1 0x1F NOT PUSH1 0x1F DUP3 ADD AND DUP3 ADD DUP1 PUSH1 0x40 MSTORE POP DUP2 ADD SWAP1 PUSH2 0x23D SWAP2 SWAP1 PUSH2 0x453 JUMP JUMPDEST POP POP POP SWAP2 POP POP DUP1 SWAP2 POP POP SWAP1 JUMP JUMPDEST PUSH0 PUSH20 0xFFFFFFFFFFFFFFFFFFFFFFFFFFFFFFFFFFFFFFFF DUP3 AND SWAP1 POP SWAP2 SWAP1 POP JUMP JUMPDEST PUSH0 PUSH2 0x273 DUP3 PUSH2 0x24A JUMP JUMPDEST SWAP1 POP SWAP2 SWAP1 POP JUMP JUMPDEST PUSH2 0x283 DUP2 PUSH2 0x269 JUMP JUMPDEST DUP3 MSTORE POP POP JUMP JUMPDEST PUSH0 PUSH1 0x20 DUP3 ADD SWAP1 POP PUSH2 0x29C PUSH0 DUP4 ADD DUP5 PUSH2 0x27A JUMP JUMPDEST SWAP3 SWAP2 POP POP JUMP JUMPDEST PUSH0 DUP2 SWAP1 POP SWAP2 SWAP1 POP JUMP JUMPDEST PUSH2 0x2B4 DUP2 PUSH2 0x2A2 JUMP JUMPDEST DUP3 MSTORE POP POP JUMP JUMPDEST PUSH0 PUSH1 0x20 DUP3 ADD SWAP1 POP PUSH2 0x2CD PUSH0 DUP4 ADD DUP5 PUSH2 0x2AB JUMP JUMPDEST SWAP3 SWAP2 POP POP JUMP JUMPDEST PUSH0 DUP3 DUP3 MSTORE PUSH1 0x20 DUP3 ADD SWAP1 POP SWAP3 SWAP2 POP POP JUMP JUMPDEST PUSH32 0x6E6F74206F6E7765720000000000000000000000000000000000000000000000 PUSH0 DUP3 ADD MSTORE POP JUMP JUMPDEST PUSH0 PUSH2 0x317 PUSH1 0x9 DUP4 PUSH2 0x2D3 JUMP JUMPDEST SWAP2 POP PUSH2 0x322 DUP3 PUSH2 0x2E3 JUMP JUMPDEST PUSH1 0x20 DUP3 ADD SWAP1 POP SWAP2 SWAP1 POP JUMP JUMPDEST PUSH0 PUSH1 0x20 DUP3 ADD SWAP1 POP DUP2 DUP2 SUB PUSH0 DUP4 ADD MSTORE PUSH2 0x344 DUP2 PUSH2 0x30B JUMP JUMPDEST SWAP1 POP SWAP2 SWAP1 POP JUMP JUMPDEST PUSH32 0x6D757374207468656E2031206574680000000000000000000000000000000000 PUSH0 DUP3 ADD MSTORE POP JUMP JUMPDEST PUSH0 PUSH2 0x37F PUSH1 0xF DUP4 PUSH2 0x2D3 JUMP JUMPDEST SWAP2 POP PUSH2 0x38A DUP3 PUSH2 0x34B JUMP JUMPDEST PUSH1 0x20 DUP3 ADD SWAP1 POP SWAP2 SWAP1 POP JUMP JUMPDEST PUSH0 PUSH1 0x20 DUP3 ADD SWAP1 POP DUP2 DUP2 SUB PUSH0 DUP4 ADD MSTORE PUSH2 0x3AC DUP2 PUSH2 0x373 JUMP JUMPDEST SWAP1 POP SWAP2 SWAP1 POP JUMP JUMPDEST PUSH0 DUP1 REVERT JUMPDEST PUSH0 PUSH10 0xFFFFFFFFFFFFFFFFFFFF DUP3 AND SWAP1 POP SWAP2 SWAP1 POP JUMP JUMPDEST PUSH2 0x3D5 DUP2 PUSH2 0x3B7 JUMP JUMPDEST DUP2 EQ PUSH2 0x3DF JUMPI PUSH0 DUP1 REVERT JUMPDEST POP JUMP JUMPDEST PUSH0 DUP2 MLOAD SWAP1 POP PUSH2 0x3F0 DUP2 PUSH2 0x3CC JUMP JUMPDEST SWAP3 SWAP2 POP POP JUMP JUMPDEST PUSH2 0x3FF DUP2 PUSH2 0x2A2 JUMP JUMPDEST DUP2 EQ PUSH2 0x409 JUMPI PUSH0 DUP1 REVERT JUMPDEST POP JUMP JUMPDEST PUSH0 DUP2 MLOAD SWAP1 POP PUSH2 0x41A DUP2 PUSH2 0x3F6 JUMP JUMPDEST SWAP3 SWAP2 POP POP JUMP JUMPDEST PUSH0 DUP2 SWAP1 POP SWAP2 SWAP1 POP JUMP JUMPDEST PUSH2 0x432 DUP2 PUSH2 0x420 JUMP JUMPDEST DUP2 EQ PUSH2 0x43C JUMPI PUSH0 DUP1 REVERT JUMPDEST POP JUMP JUMPDEST PUSH0 DUP2 MLOAD SWAP1 POP PUSH2 0x44D DUP2 PUSH2 0x429 JUMP JUMPDEST SWAP3 SWAP2 POP POP JUMP JUMPDEST PUSH0 DUP1 PUSH0 DUP1 PUSH0 PUSH1 0xA0 DUP7 DUP9 SUB SLT ISZERO PUSH2 0x46C JUMPI PUSH2 0x46B PUSH2 0x3B3 JUMP JUMPDEST JUMPDEST PUSH0 PUSH2 0x479 DUP9 DUP3 DUP10 ADD PUSH2 0x3E2 JUMP JUMPDEST SWAP6 POP POP PUSH1 0x20 PUSH2 0x48A DUP9 DUP3 DUP10 ADD PUSH2 0x40C JUMP JUMPDEST SWAP5 POP POP PUSH1 0x40 PUSH2 0x49B DUP9 DUP3 DUP10 ADD PUSH2 0x43F JUMP JUMPDEST SWAP4 POP POP PUSH1 0x60 PUSH2 0x4AC DUP9 DUP3 DUP10 ADD PUSH2 0x43F JUMP JUMPDEST SWAP3 POP POP PUSH1 0x80 PUSH2 0x4BD DUP9 DUP3 DUP10 ADD PUSH2 0x3E2 JUMP JUMPDEST SWAP2 POP POP SWAP3 SWAP6 POP SWAP3 SWAP6 SWAP1 SWAP4 POP JUMP INVALID LOG2 PUSH5 0x6970667358 0x22 SLT KECCAK256 STATICCALL 0xC2 0xA6 PUSH15 0x9B42A4803173B774134BC4E4CEFA3A 0xF 0xF8 RETURN CODECOPY 0xBE 0xA7 0xF9 PREVRANDAO DUP8 AND EXTCODESIZE RETURNDATACOPY BALANCE PUSH5 0x736F6C6343 STOP ADDMOD NOT STOP CALLER "
				},
				"gasEstimates": {
					"creation": {
						"codeDepositCost": "256000",
						"executionCost": "70929",
						"totalCost": "326929"
					},
					"external": {
						"ETHTOUSD()": "infinite",
						"fund()": "447",
						"give()": "2593",
						"onwer()": "2483"
					}
				},
				"methodIdentifiers": {
					"ETHTOUSD()": "e6f803ed",
					"fund()": "b60d4288",
					"give()": "9e96a23a",
					"onwer()": "3433edd9"
				}
			},
			"storageLayout": {
				"storage": [
					{
						"astId": 51,
						"contract": "contracts/ls/test.sol:founMe",
						"label": "onwer",
						"offset": 0,
						"slot": "0",
						"type": "t_address"
					},
					{
						"astId": 54,
						"contract": "contracts/ls/test.sol:founMe",
						"label": "dataFeed",
						"offset": 0,
						"slot": "1",
						"type": "t_contract(AggregatorV3Interface)45"
					},
					{
						"astId": 57,
						"contract": "contracts/ls/test.sol:founMe",
						"label": "minusd",
						"offset": 0,
						"slot": "2",
						"type": "t_uint256"
					}
				],
				"types": {
					"t_address": {
						"encoding": "inplace",
						"label": "address",
						"numberOfBytes": "20"
					},
					"t_contract(AggregatorV3Interface)45": {
						"encoding": "inplace",
						"label": "contract AggregatorV3Interface",
						"numberOfBytes": "20"
					},
					"t_uint256": {
						"encoding": "inplace",
						"label": "uint256",
						"numberOfBytes": "32"
					}
				}
			},
			"userdoc": {
				"kind": "user",
				"methods": {},
				"version": 1
			}
		}
	}
}